{
  "contractName": "GuaranteeToken",
  "abi": [
    {
      "inputs": [],
      "stateMutability": "nonpayable",
      "type": "constructor"
    },
    {
      "anonymous": false,
      "inputs": [
        {
          "indexed": true,
          "internalType": "address",
          "name": "owner",
          "type": "address"
        },
        {
          "indexed": true,
          "internalType": "address",
          "name": "approved",
          "type": "address"
        },
        {
          "indexed": true,
          "internalType": "uint256",
          "name": "tokenId",
          "type": "uint256"
        }
      ],
      "name": "Approval",
      "type": "event"
    },
    {
      "anonymous": false,
      "inputs": [
        {
          "indexed": true,
          "internalType": "address",
          "name": "owner",
          "type": "address"
        },
        {
          "indexed": true,
          "internalType": "address",
          "name": "operator",
          "type": "address"
        },
        {
          "indexed": false,
          "internalType": "bool",
          "name": "approved",
          "type": "bool"
        }
      ],
      "name": "ApprovalForAll",
      "type": "event"
    },
    {
      "anonymous": false,
      "inputs": [
        {
          "indexed": true,
          "internalType": "bytes32",
          "name": "role",
          "type": "bytes32"
        },
        {
          "indexed": true,
          "internalType": "bytes32",
          "name": "previousAdminRole",
          "type": "bytes32"
        },
        {
          "indexed": true,
          "internalType": "bytes32",
          "name": "newAdminRole",
          "type": "bytes32"
        }
      ],
      "name": "RoleAdminChanged",
      "type": "event"
    },
    {
      "anonymous": false,
      "inputs": [
        {
          "indexed": true,
          "internalType": "bytes32",
          "name": "role",
          "type": "bytes32"
        },
        {
          "indexed": true,
          "internalType": "address",
          "name": "account",
          "type": "address"
        },
        {
          "indexed": true,
          "internalType": "address",
          "name": "sender",
          "type": "address"
        }
      ],
      "name": "RoleGranted",
      "type": "event"
    },
    {
      "anonymous": false,
      "inputs": [
        {
          "indexed": true,
          "internalType": "bytes32",
          "name": "role",
          "type": "bytes32"
        },
        {
          "indexed": true,
          "internalType": "address",
          "name": "account",
          "type": "address"
        },
        {
          "indexed": true,
          "internalType": "address",
          "name": "sender",
          "type": "address"
        }
      ],
      "name": "RoleRevoked",
      "type": "event"
    },
    {
      "anonymous": false,
      "inputs": [
        {
          "indexed": true,
          "internalType": "address",
          "name": "from",
          "type": "address"
        },
        {
          "indexed": true,
          "internalType": "address",
          "name": "to",
          "type": "address"
        },
        {
          "indexed": true,
          "internalType": "uint256",
          "name": "tokenId",
          "type": "uint256"
        }
      ],
      "name": "Transfer",
      "type": "event"
    },
    {
      "inputs": [],
      "name": "DEFAULT_ADMIN_ROLE",
      "outputs": [
        {
          "internalType": "bytes32",
          "name": "",
          "type": "bytes32"
        }
      ],
      "stateMutability": "view",
      "type": "function",
      "constant": true
    },
    {
      "inputs": [],
      "name": "MINTER_ROLE",
      "outputs": [
        {
          "internalType": "bytes32",
          "name": "",
          "type": "bytes32"
        }
      ],
      "stateMutability": "view",
      "type": "function",
      "constant": true
    },
    {
      "inputs": [
        {
          "internalType": "address",
          "name": "to",
          "type": "address"
        },
        {
          "internalType": "uint256",
          "name": "tokenId",
          "type": "uint256"
        }
      ],
      "name": "approve",
      "outputs": [],
      "stateMutability": "nonpayable",
      "type": "function"
    },
    {
      "inputs": [
        {
          "internalType": "address",
          "name": "owner",
          "type": "address"
        }
      ],
      "name": "balanceOf",
      "outputs": [
        {
          "internalType": "uint256",
          "name": "",
          "type": "uint256"
        }
      ],
      "stateMutability": "view",
      "type": "function",
      "constant": true
    },
    {
      "inputs": [
        {
          "internalType": "uint256",
          "name": "tokenId",
          "type": "uint256"
        }
      ],
      "name": "getApproved",
      "outputs": [
        {
          "internalType": "address",
          "name": "",
          "type": "address"
        }
      ],
      "stateMutability": "view",
      "type": "function",
      "constant": true
    },
    {
      "inputs": [
        {
          "internalType": "bytes32",
          "name": "role",
          "type": "bytes32"
        }
      ],
      "name": "getRoleAdmin",
      "outputs": [
        {
          "internalType": "bytes32",
          "name": "",
          "type": "bytes32"
        }
      ],
      "stateMutability": "view",
      "type": "function",
      "constant": true
    },
    {
      "inputs": [
        {
          "internalType": "bytes32",
          "name": "role",
          "type": "bytes32"
        },
        {
          "internalType": "address",
          "name": "account",
          "type": "address"
        }
      ],
      "name": "grantRole",
      "outputs": [],
      "stateMutability": "nonpayable",
      "type": "function"
    },
    {
      "inputs": [
        {
          "internalType": "bytes32",
          "name": "role",
          "type": "bytes32"
        },
        {
          "internalType": "address",
          "name": "account",
          "type": "address"
        }
      ],
      "name": "hasRole",
      "outputs": [
        {
          "internalType": "bool",
          "name": "",
          "type": "bool"
        }
      ],
      "stateMutability": "view",
      "type": "function",
      "constant": true
    },
    {
      "inputs": [
        {
          "internalType": "address",
          "name": "owner",
          "type": "address"
        },
        {
          "internalType": "address",
          "name": "operator",
          "type": "address"
        }
      ],
      "name": "isApprovedForAll",
      "outputs": [
        {
          "internalType": "bool",
          "name": "",
          "type": "bool"
        }
      ],
      "stateMutability": "view",
      "type": "function",
      "constant": true
    },
    {
      "inputs": [],
      "name": "name",
      "outputs": [
        {
          "internalType": "string",
          "name": "",
          "type": "string"
        }
      ],
      "stateMutability": "view",
      "type": "function",
      "constant": true
    },
    {
      "inputs": [
        {
          "internalType": "uint256",
          "name": "tokenId",
          "type": "uint256"
        }
      ],
      "name": "ownerOf",
      "outputs": [
        {
          "internalType": "address",
          "name": "",
          "type": "address"
        }
      ],
      "stateMutability": "view",
      "type": "function",
      "constant": true
    },
    {
      "inputs": [
        {
          "internalType": "bytes32",
          "name": "role",
          "type": "bytes32"
        },
        {
          "internalType": "address",
          "name": "account",
          "type": "address"
        }
      ],
      "name": "renounceRole",
      "outputs": [],
      "stateMutability": "nonpayable",
      "type": "function"
    },
    {
      "inputs": [
        {
          "internalType": "bytes32",
          "name": "role",
          "type": "bytes32"
        },
        {
          "internalType": "address",
          "name": "account",
          "type": "address"
        }
      ],
      "name": "revokeRole",
      "outputs": [],
      "stateMutability": "nonpayable",
      "type": "function"
    },
    {
      "inputs": [
        {
          "internalType": "address",
          "name": "from",
          "type": "address"
        },
        {
          "internalType": "address",
          "name": "to",
          "type": "address"
        },
        {
          "internalType": "uint256",
          "name": "tokenId",
          "type": "uint256"
        }
      ],
      "name": "safeTransferFrom",
      "outputs": [],
      "stateMutability": "nonpayable",
      "type": "function"
    },
    {
      "inputs": [
        {
          "internalType": "address",
          "name": "from",
          "type": "address"
        },
        {
          "internalType": "address",
          "name": "to",
          "type": "address"
        },
        {
          "internalType": "uint256",
          "name": "tokenId",
          "type": "uint256"
        },
        {
          "internalType": "bytes",
          "name": "_data",
          "type": "bytes"
        }
      ],
      "name": "safeTransferFrom",
      "outputs": [],
      "stateMutability": "nonpayable",
      "type": "function"
    },
    {
      "inputs": [
        {
          "internalType": "address",
          "name": "operator",
          "type": "address"
        },
        {
          "internalType": "bool",
          "name": "approved",
          "type": "bool"
        }
      ],
      "name": "setApprovalForAll",
      "outputs": [],
      "stateMutability": "nonpayable",
      "type": "function"
    },
    {
      "inputs": [],
      "name": "symbol",
      "outputs": [
        {
          "internalType": "string",
          "name": "",
          "type": "string"
        }
      ],
      "stateMutability": "view",
      "type": "function",
      "constant": true
    },
    {
      "inputs": [
        {
          "internalType": "uint256",
          "name": "index",
          "type": "uint256"
        }
      ],
      "name": "tokenByIndex",
      "outputs": [
        {
          "internalType": "uint256",
          "name": "",
          "type": "uint256"
        }
      ],
      "stateMutability": "view",
      "type": "function",
      "constant": true
    },
    {
      "inputs": [
        {
          "internalType": "address",
          "name": "owner",
          "type": "address"
        },
        {
          "internalType": "uint256",
          "name": "index",
          "type": "uint256"
        }
      ],
      "name": "tokenOfOwnerByIndex",
      "outputs": [
        {
          "internalType": "uint256",
          "name": "",
          "type": "uint256"
        }
      ],
      "stateMutability": "view",
      "type": "function",
      "constant": true
    },
    {
      "inputs": [
        {
          "internalType": "uint256",
          "name": "tokenId",
          "type": "uint256"
        }
      ],
      "name": "tokenURI",
      "outputs": [
        {
          "internalType": "string",
          "name": "",
          "type": "string"
        }
      ],
      "stateMutability": "view",
      "type": "function",
      "constant": true
    },
    {
      "inputs": [],
      "name": "totalSupply",
      "outputs": [
        {
          "internalType": "uint256",
          "name": "",
          "type": "uint256"
        }
      ],
      "stateMutability": "view",
      "type": "function",
      "constant": true
    },
    {
      "inputs": [
        {
          "internalType": "address",
          "name": "from",
          "type": "address"
        },
        {
          "internalType": "address",
          "name": "to",
          "type": "address"
        },
        {
          "internalType": "uint256",
          "name": "tokenId",
          "type": "uint256"
        }
      ],
      "name": "transferFrom",
      "outputs": [],
      "stateMutability": "nonpayable",
      "type": "function"
    },
    {
      "inputs": [
        {
          "internalType": "address",
          "name": "to",
          "type": "address"
        }
      ],
      "name": "safeMint",
      "outputs": [],
      "stateMutability": "nonpayable",
      "type": "function"
    },
    {
      "inputs": [
        {
          "internalType": "bytes4",
          "name": "interfaceId",
          "type": "bytes4"
        }
      ],
      "name": "supportsInterface",
      "outputs": [
        {
          "internalType": "bool",
          "name": "",
          "type": "bool"
        }
      ],
      "stateMutability": "view",
      "type": "function",
      "constant": true
    }
  ],
  "bytecode": "0x60806040523480156200001157600080fd5b506040518060400160405280600e81526020017f47756172616e746565546f6b656e0000000000000000000000000000000000008152506040518060400160405280600381526020017f47544b000000000000000000000000000000000000000000000000000000000081525081600090805190602001906200009692919062000248565b508060019080519060200190620000af92919062000248565b505050620000c76000801b33620000cd60201b60201c565b6200035d565b620000df8282620000e360201b60201c565b5050565b620000f58282620001d560201b60201c565b620001d1576001600a600084815260200190815260200160002060000160008373ffffffffffffffffffffffffffffffffffffffff1673ffffffffffffffffffffffffffffffffffffffff16815260200190815260200160002060006101000a81548160ff021916908315150217905550620001766200024060201b60201c565b73ffffffffffffffffffffffffffffffffffffffff168173ffffffffffffffffffffffffffffffffffffffff16837f2f8788117e7eff1d82e926ec794901d17c78024a50270940304540a733656f0d60405160405180910390a45b5050565b6000600a600084815260200190815260200160002060000160008373ffffffffffffffffffffffffffffffffffffffff1673ffffffffffffffffffffffffffffffffffffffff16815260200190815260200160002060009054906101000a900460ff16905092915050565b600033905090565b828054620002569062000327565b90600052602060002090601f0160209004810192826200027a5760008555620002c6565b82601f106200029557805160ff1916838001178555620002c6565b82800160010185558215620002c6579182015b82811115620002c5578251825591602001919060010190620002a8565b5b509050620002d59190620002d9565b5090565b5b80821115620002f4576000816000905550600101620002da565b5090565b7f4e487b7100000000000000000000000000000000000000000000000000000000600052602260045260246000fd5b600060028204905060018216806200034057607f821691505b60208210811415620003575762000356620002f8565b5b50919050565b613a5c806200036d6000396000f3fe608060405234801561001057600080fd5b50600436106101585760003560e01c80634f6ccce7116100c3578063a22cb4651161007c578063a22cb465146103fd578063b88d4fde14610419578063c87b56dd14610435578063d539139314610465578063d547741f14610483578063e985e9c51461049f57610158565b80634f6ccce7146103015780636352211e1461033157806370a082311461036157806391d148541461039157806395d89b41146103c1578063a217fddf146103df57610158565b8063248a9ca311610115578063248a9ca3146102315780632f2ff15d146102615780632f745c591461027d57806336568abe146102ad57806340d097c3146102c957806342842e0e146102e557610158565b806301ffc9a71461015d57806306fdde031461018d578063081812fc146101ab578063095ea7b3146101db57806318160ddd146101f757806323b872dd14610215575b600080fd5b6101776004803603810190610172919061256b565b6104cf565b60405161018491906125b3565b60405180910390f35b6101956104e1565b6040516101a29190612667565b60405180910390f35b6101c560048036038101906101c091906126bf565b610573565b6040516101d2919061272d565b60405180910390f35b6101f560048036038101906101f09190612774565b6105f8565b005b6101ff610710565b60405161020c91906127c3565b60405180910390f35b61022f600480360381019061022a91906127de565b61071d565b005b61024b60048036038101906102469190612867565b61077d565b60405161025891906128a3565b60405180910390f35b61027b600480360381019061027691906128be565b61079d565b005b61029760048036038101906102929190612774565b6107c6565b6040516102a491906127c3565b60405180910390f35b6102c760048036038101906102c291906128be565b61086b565b005b6102e360048036038101906102de91906128fe565b6108ee565b005b6102ff60048036038101906102fa91906127de565b610947565b005b61031b600480360381019061031691906126bf565b610967565b60405161032891906127c3565b60405180910390f35b61034b600480360381019061034691906126bf565b6109d8565b604051610358919061272d565b60405180910390f35b61037b600480360381019061037691906128fe565b610a8a565b60405161038891906127c3565b60405180910390f35b6103ab60048036038101906103a691906128be565b610b42565b6040516103b891906125b3565b60405180910390f35b6103c9610bad565b6040516103d69190612667565b60405180910390f35b6103e7610c3f565b6040516103f491906128a3565b60405180910390f35b61041760048036038101906104129190612957565b610c46565b005b610433600480360381019061042e9190612acc565b610c5c565b005b61044f600480360381019061044a91906126bf565b610cbe565b60405161045c9190612667565b60405180910390f35b61046d610d65565b60405161047a91906128a3565b60405180910390f35b61049d600480360381019061049891906128be565b610d89565b005b6104b960048036038101906104b49190612b4f565b610db2565b6040516104c691906125b3565b60405180910390f35b60006104da82610e46565b9050919050565b6060600080546104f090612bbe565b80601f016020809104026020016040519081016040528092919081815260200182805461051c90612bbe565b80156105695780601f1061053e57610100808354040283529160200191610569565b820191906000526020600020905b81548152906001019060200180831161054c57829003601f168201915b5050505050905090565b600061057e82610ec0565b6105bd576040517f08c379a00000000000000000000000000000000000000000000000000000000081526004016105b490612c62565b60405180910390fd5b6004600083815260200190815260200160002060009054906101000a900473ffffffffffffffffffffffffffffffffffffffff169050919050565b6000610603826109d8565b90508073ffffffffffffffffffffffffffffffffffffffff168373ffffffffffffffffffffffffffffffffffffffff161415610674576040517f08c379a000000000000000000000000000000000000000000000000000000000815260040161066b90612cf4565b60405180910390fd5b8073ffffffffffffffffffffffffffffffffffffffff16610693610f2c565b73ffffffffffffffffffffffffffffffffffffffff1614806106c257506106c1816106bc610f2c565b610db2565b5b610701576040517f08c379a00000000000000000000000000000000000000000000000000000000081526004016106f890612d86565b60405180910390fd5b61070b8383610f34565b505050565b6000600880549050905090565b61072e610728610f2c565b82610fed565b61076d576040517f08c379a000000000000000000000000000000000000000000000000000000000815260040161076490612e18565b60405180910390fd5b6107788383836110cb565b505050565b6000600a6000838152602001908152602001600020600101549050919050565b6107a68261077d565b6107b7816107b2610f2c565b611327565b6107c183836113c4565b505050565b60006107d183610a8a565b8210610812576040517f08c379a000000000000000000000000000000000000000000000000000000000815260040161080990612eaa565b60405180910390fd5b600660008473ffffffffffffffffffffffffffffffffffffffff1673ffffffffffffffffffffffffffffffffffffffff168152602001908152602001600020600083815260200190815260200160002054905092915050565b610873610f2c565b73ffffffffffffffffffffffffffffffffffffffff168173ffffffffffffffffffffffffffffffffffffffff16146108e0576040517f08c379a00000000000000000000000000000000000000000000000000000000081526004016108d790612f3c565b60405180910390fd5b6108ea82826114a5565b5050565b7f9f2df0fed2c77648de5860a4cc508cd0818c85b8b8a1ab4ceeef8d981c8956a66109208161091b610f2c565b611327565b600061092c600b611587565b9050610938600b611595565b61094283826115ab565b505050565b61096283838360405180602001604052806000815250610c5c565b505050565b6000610971610710565b82106109b2576040517f08c379a00000000000000000000000000000000000000000000000000000000081526004016109a990612fce565b60405180910390fd5b600882815481106109c6576109c5612fee565b5b90600052602060002001549050919050565b6000806002600084815260200190815260200160002060009054906101000a900473ffffffffffffffffffffffffffffffffffffffff169050600073ffffffffffffffffffffffffffffffffffffffff168173ffffffffffffffffffffffffffffffffffffffff161415610a81576040517f08c379a0000000000000000000000000000000000000000000000000000000008152600401610a789061308f565b60405180910390fd5b80915050919050565b60008073ffffffffffffffffffffffffffffffffffffffff168273ffffffffffffffffffffffffffffffffffffffff161415610afb576040517f08c379a0000000000000000000000000000000000000000000000000000000008152600401610af290613121565b60405180910390fd5b600360008373ffffffffffffffffffffffffffffffffffffffff1673ffffffffffffffffffffffffffffffffffffffff168152602001908152602001600020549050919050565b6000600a600084815260200190815260200160002060000160008373ffffffffffffffffffffffffffffffffffffffff1673ffffffffffffffffffffffffffffffffffffffff16815260200190815260200160002060009054906101000a900460ff16905092915050565b606060018054610bbc90612bbe565b80601f0160208091040260200160405190810160405280929190818152602001828054610be890612bbe565b8015610c355780601f10610c0a57610100808354040283529160200191610c35565b820191906000526020600020905b815481529060010190602001808311610c1857829003601f168201915b5050505050905090565b6000801b81565b610c58610c51610f2c565b83836115c9565b5050565b610c6d610c67610f2c565b83610fed565b610cac576040517f08c379a0000000000000000000000000000000000000000000000000000000008152600401610ca390612e18565b60405180910390fd5b610cb884848484611736565b50505050565b6060610cc982610ec0565b610d08576040517f08c379a0000000000000000000000000000000000000000000000000000000008152600401610cff906131b3565b60405180910390fd5b6000610d12611792565b90506000815111610d325760405180602001604052806000815250610d5d565b80610d3c846117a9565b604051602001610d4d92919061320f565b6040516020818303038152906040525b915050919050565b7f9f2df0fed2c77648de5860a4cc508cd0818c85b8b8a1ab4ceeef8d981c8956a681565b610d928261077d565b610da381610d9e610f2c565b611327565b610dad83836114a5565b505050565b6000600560008473ffffffffffffffffffffffffffffffffffffffff1673ffffffffffffffffffffffffffffffffffffffff16815260200190815260200160002060008373ffffffffffffffffffffffffffffffffffffffff1673ffffffffffffffffffffffffffffffffffffffff16815260200190815260200160002060009054906101000a900460ff16905092915050565b60007f7965db0b000000000000000000000000000000000000000000000000000000007bffffffffffffffffffffffffffffffffffffffffffffffffffffffff1916827bffffffffffffffffffffffffffffffffffffffffffffffffffffffff19161480610eb95750610eb88261190a565b5b9050919050565b60008073ffffffffffffffffffffffffffffffffffffffff166002600084815260200190815260200160002060009054906101000a900473ffffffffffffffffffffffffffffffffffffffff1673ffffffffffffffffffffffffffffffffffffffff1614159050919050565b600033905090565b816004600083815260200190815260200160002060006101000a81548173ffffffffffffffffffffffffffffffffffffffff021916908373ffffffffffffffffffffffffffffffffffffffff160217905550808273ffffffffffffffffffffffffffffffffffffffff16610fa7836109d8565b73ffffffffffffffffffffffffffffffffffffffff167f8c5be1e5ebec7d5bd14f71427d1e84f3dd0314c0f7b2291e5b200ac8c7c3b92560405160405180910390a45050565b6000610ff882610ec0565b611037576040517f08c379a000000000000000000000000000000000000000000000000000000000815260040161102e906132a5565b60405180910390fd5b6000611042836109d8565b90508073ffffffffffffffffffffffffffffffffffffffff168473ffffffffffffffffffffffffffffffffffffffff1614806110b157508373ffffffffffffffffffffffffffffffffffffffff1661109984610573565b73ffffffffffffffffffffffffffffffffffffffff16145b806110c257506110c18185610db2565b5b91505092915050565b8273ffffffffffffffffffffffffffffffffffffffff166110eb826109d8565b73ffffffffffffffffffffffffffffffffffffffff1614611141576040517f08c379a000000000000000000000000000000000000000000000000000000000815260040161113890613337565b60405180910390fd5b600073ffffffffffffffffffffffffffffffffffffffff168273ffffffffffffffffffffffffffffffffffffffff1614156111b1576040517f08c379a00000000000000000000000000000000000000000000000000000000081526004016111a8906133c9565b60405180910390fd5b6111bc838383611984565b6111c7600082610f34565b6001600360008573ffffffffffffffffffffffffffffffffffffffff1673ffffffffffffffffffffffffffffffffffffffff16815260200190815260200160002060008282546112179190613418565b925050819055506001600360008473ffffffffffffffffffffffffffffffffffffffff1673ffffffffffffffffffffffffffffffffffffffff168152602001908152602001600020600082825461126e919061344c565b92505081905550816002600083815260200190815260200160002060006101000a81548173ffffffffffffffffffffffffffffffffffffffff021916908373ffffffffffffffffffffffffffffffffffffffff160217905550808273ffffffffffffffffffffffffffffffffffffffff168473ffffffffffffffffffffffffffffffffffffffff167fddf252ad1be2c89b69c2b068fc378daa952ba7f163c4a11628f55a4df523b3ef60405160405180910390a4505050565b6113318282610b42565b6113c0576113568173ffffffffffffffffffffffffffffffffffffffff166014611994565b6113648360001c6020611994565b60405160200161137592919061353a565b6040516020818303038152906040526040517f08c379a00000000000000000000000000000000000000000000000000000000081526004016113b79190612667565b60405180910390fd5b5050565b6113ce8282610b42565b6114a1576001600a600084815260200190815260200160002060000160008373ffffffffffffffffffffffffffffffffffffffff1673ffffffffffffffffffffffffffffffffffffffff16815260200190815260200160002060006101000a81548160ff021916908315150217905550611446610f2c565b73ffffffffffffffffffffffffffffffffffffffff168173ffffffffffffffffffffffffffffffffffffffff16837f2f8788117e7eff1d82e926ec794901d17c78024a50270940304540a733656f0d60405160405180910390a45b5050565b6114af8282610b42565b15611583576000600a600084815260200190815260200160002060000160008373ffffffffffffffffffffffffffffffffffffffff1673ffffffffffffffffffffffffffffffffffffffff16815260200190815260200160002060006101000a81548160ff021916908315150217905550611528610f2c565b73ffffffffffffffffffffffffffffffffffffffff168173ffffffffffffffffffffffffffffffffffffffff16837ff6391f5c32d9c69d2a47ea670b442974b53935d1edc7fd64eb21e047a839171b60405160405180910390a45b5050565b600081600001549050919050565b6001816000016000828254019250508190555050565b6115c5828260405180602001604052806000815250611bd0565b5050565b8173ffffffffffffffffffffffffffffffffffffffff168373ffffffffffffffffffffffffffffffffffffffff161415611638576040517f08c379a000000000000000000000000000000000000000000000000000000000815260040161162f906135c0565b60405180910390fd5b80600560008573ffffffffffffffffffffffffffffffffffffffff1673ffffffffffffffffffffffffffffffffffffffff16815260200190815260200160002060008473ffffffffffffffffffffffffffffffffffffffff1673ffffffffffffffffffffffffffffffffffffffff16815260200190815260200160002060006101000a81548160ff0219169083151502179055508173ffffffffffffffffffffffffffffffffffffffff168373ffffffffffffffffffffffffffffffffffffffff167f17307eab39ab6107e8899845ad3d59bd9653f200f220920489ca2b5937696c318360405161172991906125b3565b60405180910390a3505050565b6117418484846110cb565b61174d84848484611c2b565b61178c576040517f08c379a000000000000000000000000000000000000000000000000000000000815260040161178390613652565b60405180910390fd5b50505050565b606060405180602001604052806000815250905090565b606060008214156117f1576040518060400160405280600181526020017f30000000000000000000000000000000000000000000000000000000000000008152509050611905565b600082905060005b6000821461182357808061180c90613672565b915050600a8261181c91906136ea565b91506117f9565b60008167ffffffffffffffff81111561183f5761183e6129a1565b5b6040519080825280601f01601f1916602001820160405280156118715781602001600182028036833780820191505090505b5090505b600085146118fe5760018261188a9190613418565b9150600a85611899919061371b565b60306118a5919061344c565b60f81b8183815181106118bb576118ba612fee565b5b60200101907effffffffffffffffffffffffffffffffffffffffffffffffffffffffffffff1916908160001a905350600a856118f791906136ea565b9450611875565b8093505050505b919050565b60007f780e9d63000000000000000000000000000000000000000000000000000000007bffffffffffffffffffffffffffffffffffffffffffffffffffffffff1916827bffffffffffffffffffffffffffffffffffffffffffffffffffffffff1916148061197d575061197c82611db3565b5b9050919050565b61198f838383611e95565b505050565b6060600060028360026119a7919061374c565b6119b1919061344c565b67ffffffffffffffff8111156119ca576119c96129a1565b5b6040519080825280601f01601f1916602001820160405280156119fc5781602001600182028036833780820191505090505b5090507f300000000000000000000000000000000000000000000000000000000000000081600081518110611a3457611a33612fee565b5b60200101907effffffffffffffffffffffffffffffffffffffffffffffffffffffffffffff1916908160001a9053507f780000000000000000000000000000000000000000000000000000000000000081600181518110611a9857611a97612fee565b5b60200101907effffffffffffffffffffffffffffffffffffffffffffffffffffffffffffff1916908160001a90535060006001846002611ad8919061374c565b611ae2919061344c565b90505b6001811115611b82577f3031323334353637383961626364656600000000000000000000000000000000600f861660108110611b2457611b23612fee565b5b1a60f81b828281518110611b3b57611b3a612fee565b5b60200101907effffffffffffffffffffffffffffffffffffffffffffffffffffffffffffff1916908160001a905350600485901c945080611b7b906137a6565b9050611ae5565b5060008414611bc6576040517f08c379a0000000000000000000000000000000000000000000000000000000008152600401611bbd9061381c565b60405180910390fd5b8091505092915050565b611bda8383611fa9565b611be76000848484611c2b565b611c26576040517f08c379a0000000000000000000000000000000000000000000000000000000008152600401611c1d90613652565b60405180910390fd5b505050565b6000611c4c8473ffffffffffffffffffffffffffffffffffffffff16612177565b15611da6578373ffffffffffffffffffffffffffffffffffffffff1663150b7a02611c75610f2c565b8786866040518563ffffffff1660e01b8152600401611c979493929190613891565b6020604051808303816000875af1925050508015611cd357506040513d601f19601f82011682018060405250810190611cd091906138f2565b60015b611d56573d8060008114611d03576040519150601f19603f3d011682016040523d82523d6000602084013e611d08565b606091505b50600081511415611d4e576040517f08c379a0000000000000000000000000000000000000000000000000000000008152600401611d4590613652565b60405180910390fd5b805181602001fd5b63150b7a0260e01b7bffffffffffffffffffffffffffffffffffffffffffffffffffffffff1916817bffffffffffffffffffffffffffffffffffffffffffffffffffffffff191614915050611dab565b600190505b949350505050565b60007f80ac58cd000000000000000000000000000000000000000000000000000000007bffffffffffffffffffffffffffffffffffffffffffffffffffffffff1916827bffffffffffffffffffffffffffffffffffffffffffffffffffffffff19161480611e7e57507f5b5e139f000000000000000000000000000000000000000000000000000000007bffffffffffffffffffffffffffffffffffffffffffffffffffffffff1916827bffffffffffffffffffffffffffffffffffffffffffffffffffffffff1916145b80611e8e5750611e8d8261218a565b5b9050919050565b611ea08383836121f4565b600073ffffffffffffffffffffffffffffffffffffffff168373ffffffffffffffffffffffffffffffffffffffff161415611ee357611ede816121f9565b611f22565b8173ffffffffffffffffffffffffffffffffffffffff168373ffffffffffffffffffffffffffffffffffffffff1614611f2157611f208382612242565b5b5b600073ffffffffffffffffffffffffffffffffffffffff168273ffffffffffffffffffffffffffffffffffffffff161415611f6557611f60816123af565b611fa4565b8273ffffffffffffffffffffffffffffffffffffffff168273ffffffffffffffffffffffffffffffffffffffff1614611fa357611fa28282612480565b5b5b505050565b600073ffffffffffffffffffffffffffffffffffffffff168273ffffffffffffffffffffffffffffffffffffffff161415612019576040517f08c379a00000000000000000000000000000000000000000000000000000000081526004016120109061396b565b60405180910390fd5b61202281610ec0565b15612062576040517f08c379a0000000000000000000000000000000000000000000000000000000008152600401612059906139d7565b60405180910390fd5b61206e60008383611984565b6001600360008473ffffffffffffffffffffffffffffffffffffffff1673ffffffffffffffffffffffffffffffffffffffff16815260200190815260200160002060008282546120be919061344c565b92505081905550816002600083815260200190815260200160002060006101000a81548173ffffffffffffffffffffffffffffffffffffffff021916908373ffffffffffffffffffffffffffffffffffffffff160217905550808273ffffffffffffffffffffffffffffffffffffffff16600073ffffffffffffffffffffffffffffffffffffffff167fddf252ad1be2c89b69c2b068fc378daa952ba7f163c4a11628f55a4df523b3ef60405160405180910390a45050565b600080823b905060008111915050919050565b60007f01ffc9a7000000000000000000000000000000000000000000000000000000007bffffffffffffffffffffffffffffffffffffffffffffffffffffffff1916827bffffffffffffffffffffffffffffffffffffffffffffffffffffffff1916149050919050565b505050565b6008805490506009600083815260200190815260200160002081905550600881908060018154018082558091505060019003906000526020600020016000909190919091505550565b6000600161224f84610a8a565b6122599190613418565b905060006007600084815260200190815260200160002054905081811461233e576000600660008673ffffffffffffffffffffffffffffffffffffffff1673ffffffffffffffffffffffffffffffffffffffff168152602001908152602001600020600084815260200190815260200160002054905080600660008773ffffffffffffffffffffffffffffffffffffffff1673ffffffffffffffffffffffffffffffffffffffff168152602001908152602001600020600084815260200190815260200160002081905550816007600083815260200190815260200160002081905550505b6007600084815260200190815260200160002060009055600660008573ffffffffffffffffffffffffffffffffffffffff1673ffffffffffffffffffffffffffffffffffffffff16815260200190815260200160002060008381526020019081526020016000206000905550505050565b600060016008805490506123c39190613418565b90506000600960008481526020019081526020016000205490506000600883815481106123f3576123f2612fee565b5b90600052602060002001549050806008838154811061241557612414612fee565b5b906000526020600020018190555081600960008381526020019081526020016000208190555060096000858152602001908152602001600020600090556008805480612464576124636139f7565b5b6001900381819060005260206000200160009055905550505050565b600061248b83610a8a565b905081600660008573ffffffffffffffffffffffffffffffffffffffff1673ffffffffffffffffffffffffffffffffffffffff168152602001908152602001600020600083815260200190815260200160002081905550806007600084815260200190815260200160002081905550505050565b6000604051905090565b600080fd5b600080fd5b60007fffffffff0000000000000000000000000000000000000000000000000000000082169050919050565b61254881612513565b811461255357600080fd5b50565b6000813590506125658161253f565b92915050565b60006020828403121561258157612580612509565b5b600061258f84828501612556565b91505092915050565b60008115159050919050565b6125ad81612598565b82525050565b60006020820190506125c860008301846125a4565b92915050565b600081519050919050565b600082825260208201905092915050565b60005b838110156126085780820151818401526020810190506125ed565b83811115612617576000848401525b50505050565b6000601f19601f8301169050919050565b6000612639826125ce565b61264381856125d9565b93506126538185602086016125ea565b61265c8161261d565b840191505092915050565b60006020820190508181036000830152612681818461262e565b905092915050565b6000819050919050565b61269c81612689565b81146126a757600080fd5b50565b6000813590506126b981612693565b92915050565b6000602082840312156126d5576126d4612509565b5b60006126e3848285016126aa565b91505092915050565b600073ffffffffffffffffffffffffffffffffffffffff82169050919050565b6000612717826126ec565b9050919050565b6127278161270c565b82525050565b6000602082019050612742600083018461271e565b92915050565b6127518161270c565b811461275c57600080fd5b50565b60008135905061276e81612748565b92915050565b6000806040838503121561278b5761278a612509565b5b60006127998582860161275f565b92505060206127aa858286016126aa565b9150509250929050565b6127bd81612689565b82525050565b60006020820190506127d860008301846127b4565b92915050565b6000806000606084860312156127f7576127f6612509565b5b60006128058682870161275f565b93505060206128168682870161275f565b9250506040612827868287016126aa565b9150509250925092565b6000819050919050565b61284481612831565b811461284f57600080fd5b50565b6000813590506128618161283b565b92915050565b60006020828403121561287d5761287c612509565b5b600061288b84828501612852565b91505092915050565b61289d81612831565b82525050565b60006020820190506128b86000830184612894565b92915050565b600080604083850312156128d5576128d4612509565b5b60006128e385828601612852565b92505060206128f48582860161275f565b9150509250929050565b60006020828403121561291457612913612509565b5b60006129228482850161275f565b91505092915050565b61293481612598565b811461293f57600080fd5b50565b6000813590506129518161292b565b92915050565b6000806040838503121561296e5761296d612509565b5b600061297c8582860161275f565b925050602061298d85828601612942565b9150509250929050565b600080fd5b600080fd5b7f4e487b7100000000000000000000000000000000000000000000000000000000600052604160045260246000fd5b6129d98261261d565b810181811067ffffffffffffffff821117156129f8576129f76129a1565b5b80604052505050565b6000612a0b6124ff565b9050612a1782826129d0565b919050565b600067ffffffffffffffff821115612a3757612a366129a1565b5b612a408261261d565b9050602081019050919050565b82818337600083830152505050565b6000612a6f612a6a84612a1c565b612a01565b905082815260208101848484011115612a8b57612a8a61299c565b5b612a96848285612a4d565b509392505050565b600082601f830112612ab357612ab2612997565b5b8135612ac3848260208601612a5c565b91505092915050565b60008060008060808587031215612ae657612ae5612509565b5b6000612af48782880161275f565b9450506020612b058782880161275f565b9350506040612b16878288016126aa565b925050606085013567ffffffffffffffff811115612b3757612b3661250e565b5b612b4387828801612a9e565b91505092959194509250565b60008060408385031215612b6657612b65612509565b5b6000612b748582860161275f565b9250506020612b858582860161275f565b9150509250929050565b7f4e487b7100000000000000000000000000000000000000000000000000000000600052602260045260246000fd5b60006002820490506001821680612bd657607f821691505b60208210811415612bea57612be9612b8f565b5b50919050565b7f4552433732313a20617070726f76656420717565727920666f72206e6f6e657860008201527f697374656e7420746f6b656e0000000000000000000000000000000000000000602082015250565b6000612c4c602c836125d9565b9150612c5782612bf0565b604082019050919050565b60006020820190508181036000830152612c7b81612c3f565b9050919050565b7f4552433732313a20617070726f76616c20746f2063757272656e74206f776e6560008201527f7200000000000000000000000000000000000000000000000000000000000000602082015250565b6000612cde6021836125d9565b9150612ce982612c82565b604082019050919050565b60006020820190508181036000830152612d0d81612cd1565b9050919050565b7f4552433732313a20617070726f76652063616c6c6572206973206e6f74206f7760008201527f6e6572206e6f7220617070726f76656420666f7220616c6c0000000000000000602082015250565b6000612d706038836125d9565b9150612d7b82612d14565b604082019050919050565b60006020820190508181036000830152612d9f81612d63565b9050919050565b7f4552433732313a207472616e736665722063616c6c6572206973206e6f74206f60008201527f776e6572206e6f7220617070726f766564000000000000000000000000000000602082015250565b6000612e026031836125d9565b9150612e0d82612da6565b604082019050919050565b60006020820190508181036000830152612e3181612df5565b9050919050565b7f455243373231456e756d657261626c653a206f776e657220696e646578206f7560008201527f74206f6620626f756e6473000000000000000000000000000000000000000000602082015250565b6000612e94602b836125d9565b9150612e9f82612e38565b604082019050919050565b60006020820190508181036000830152612ec381612e87565b9050919050565b7f416363657373436f6e74726f6c3a2063616e206f6e6c792072656e6f756e636560008201527f20726f6c657320666f722073656c660000000000000000000000000000000000602082015250565b6000612f26602f836125d9565b9150612f3182612eca565b604082019050919050565b60006020820190508181036000830152612f5581612f19565b9050919050565b7f455243373231456e756d657261626c653a20676c6f62616c20696e646578206f60008201527f7574206f6620626f756e64730000000000000000000000000000000000000000602082015250565b6000612fb8602c836125d9565b9150612fc382612f5c565b604082019050919050565b60006020820190508181036000830152612fe781612fab565b9050919050565b7f4e487b7100000000000000000000000000000000000000000000000000000000600052603260045260246000fd5b7f4552433732313a206f776e657220717565727920666f72206e6f6e657869737460008201527f656e7420746f6b656e0000000000000000000000000000000000000000000000602082015250565b60006130796029836125d9565b91506130848261301d565b604082019050919050565b600060208201905081810360008301526130a88161306c565b9050919050565b7f4552433732313a2062616c616e636520717565727920666f7220746865207a6560008201527f726f206164647265737300000000000000000000000000000000000000000000602082015250565b600061310b602a836125d9565b9150613116826130af565b604082019050919050565b6000602082019050818103600083015261313a816130fe565b9050919050565b7f4552433732314d657461646174613a2055524920717565727920666f72206e6f60008201527f6e6578697374656e7420746f6b656e0000000000000000000000000000000000602082015250565b600061319d602f836125d9565b91506131a882613141565b604082019050919050565b600060208201905081810360008301526131cc81613190565b9050919050565b600081905092915050565b60006131e9826125ce565b6131f381856131d3565b93506132038185602086016125ea565b80840191505092915050565b600061321b82856131de565b915061322782846131de565b91508190509392505050565b7f4552433732313a206f70657261746f7220717565727920666f72206e6f6e657860008201527f697374656e7420746f6b656e0000000000000000000000000000000000000000602082015250565b600061328f602c836125d9565b915061329a82613233565b604082019050919050565b600060208201905081810360008301526132be81613282565b9050919050565b7f4552433732313a207472616e73666572206f6620746f6b656e2074686174206960008201527f73206e6f74206f776e0000000000000000000000000000000000000000000000602082015250565b60006133216029836125d9565b915061332c826132c5565b604082019050919050565b6000602082019050818103600083015261335081613314565b9050919050565b7f4552433732313a207472616e7366657220746f20746865207a65726f2061646460008201527f7265737300000000000000000000000000000000000000000000000000000000602082015250565b60006133b36024836125d9565b91506133be82613357565b604082019050919050565b600060208201905081810360008301526133e2816133a6565b9050919050565b7f4e487b7100000000000000000000000000000000000000000000000000000000600052601160045260246000fd5b600061342382612689565b915061342e83612689565b925082821015613441576134406133e9565b5b828203905092915050565b600061345782612689565b915061346283612689565b9250827fffffffffffffffffffffffffffffffffffffffffffffffffffffffffffffffff03821115613497576134966133e9565b5b828201905092915050565b7f416363657373436f6e74726f6c3a206163636f756e7420000000000000000000600082015250565b60006134d86017836131d3565b91506134e3826134a2565b601782019050919050565b7f206973206d697373696e6720726f6c6520000000000000000000000000000000600082015250565b60006135246011836131d3565b915061352f826134ee565b601182019050919050565b6000613545826134cb565b915061355182856131de565b915061355c82613517565b915061356882846131de565b91508190509392505050565b7f4552433732313a20617070726f766520746f2063616c6c657200000000000000600082015250565b60006135aa6019836125d9565b91506135b582613574565b602082019050919050565b600060208201905081810360008301526135d98161359d565b9050919050565b7f4552433732313a207472616e7366657220746f206e6f6e20455243373231526560008201527f63656976657220696d706c656d656e7465720000000000000000000000000000602082015250565b600061363c6032836125d9565b9150613647826135e0565b604082019050919050565b6000602082019050818103600083015261366b8161362f565b9050919050565b600061367d82612689565b91507fffffffffffffffffffffffffffffffffffffffffffffffffffffffffffffffff8214156136b0576136af6133e9565b5b600182019050919050565b7f4e487b7100000000000000000000000000000000000000000000000000000000600052601260045260246000fd5b60006136f582612689565b915061370083612689565b9250826137105761370f6136bb565b5b828204905092915050565b600061372682612689565b915061373183612689565b925082613741576137406136bb565b5b828206905092915050565b600061375782612689565b915061376283612689565b9250817fffffffffffffffffffffffffffffffffffffffffffffffffffffffffffffffff048311821515161561379b5761379a6133e9565b5b828202905092915050565b60006137b182612689565b915060008214156137c5576137c46133e9565b5b600182039050919050565b7f537472696e67733a20686578206c656e67746820696e73756666696369656e74600082015250565b60006138066020836125d9565b9150613811826137d0565b602082019050919050565b60006020820190508181036000830152613835816137f9565b9050919050565b600081519050919050565b600082825260208201905092915050565b60006138638261383c565b61386d8185613847565b935061387d8185602086016125ea565b6138868161261d565b840191505092915050565b60006080820190506138a6600083018761271e565b6138b3602083018661271e565b6138c060408301856127b4565b81810360608301526138d28184613858565b905095945050505050565b6000815190506138ec8161253f565b92915050565b60006020828403121561390857613907612509565b5b6000613916848285016138dd565b91505092915050565b7f4552433732313a206d696e7420746f20746865207a65726f2061646472657373600082015250565b60006139556020836125d9565b91506139608261391f565b602082019050919050565b6000602082019050818103600083015261398481613948565b9050919050565b7f4552433732313a20746f6b656e20616c7265616479206d696e74656400000000600082015250565b60006139c1601c836125d9565b91506139cc8261398b565b602082019050919050565b600060208201905081810360008301526139f0816139b4565b9050919050565b7f4e487b7100000000000000000000000000000000000000000000000000000000600052603160045260246000fdfea264697066735822122019fd255a2db41b162539ba629bca4d7555d2c86d8726df7c6247985fb629753e64736f6c634300080b0033",
  "immutableReferences": {},
  "source": "// SPDX-License-Identifier: MIT\npragma solidity ^0.8.2;\n\nimport \"@openzeppelin/contracts/token/ERC721/ERC721.sol\";\nimport \"@openzeppelin/contracts/token/ERC721/extensions/ERC721Enumerable.sol\";\nimport \"@openzeppelin/contracts/access/AccessControl.sol\";\nimport \"@openzeppelin/contracts/utils/Counters.sol\";\n\ncontract GuaranteeToken is ERC721, ERC721Enumerable, AccessControl {\n    using Counters for Counters.Counter;\n\n    bytes32 public constant MINTER_ROLE = keccak256(\"MINTER_ROLE\");\n    Counters.Counter private _tokenIdCounter;\n\n    constructor() ERC721(\"GuaranteeToken\", \"GTK\") {\n        _setupRole(DEFAULT_ADMIN_ROLE, msg.sender);\n    }\n\n    function safeMint(address to) public onlyRole(MINTER_ROLE) {\n        uint256 tokenId = _tokenIdCounter.current();\n        _tokenIdCounter.increment();\n        _safeMint(to, tokenId);\n    }\n\n    // The following functions are overrides required by Solidity.\n\n    function _beforeTokenTransfer(address from, address to, uint256 tokenId)\n        internal\n        override(ERC721, ERC721Enumerable)\n    {\n        super._beforeTokenTransfer(from, to, tokenId);\n    }\n\n    function supportsInterface(bytes4 interfaceId)\n        public\n        view\n        override(ERC721, ERC721Enumerable, AccessControl)\n        returns (bool)\n    {\n        return super.supportsInterface(interfaceId);\n    }\n}",
  "sourcePath": "/Users/taewanpark/Documents/GitHub/guarantee-token/contracts/GuaranteeToken.sol",
  "compiler": {
    "name": "solc",
    "version": "0.8.11+commit.d7f03943.Emscripten.clang"
  },
  "schemaVersion": "3.4.4",
  "updatedAt": "2022-01-20T13:03:01.554Z",
  "networkType": "ethereum",
  "devdoc": {
    "kind": "dev",
    "methods": {
      "approve(address,uint256)": {
        "details": "See {IERC721-approve}."
      },
      "balanceOf(address)": {
        "details": "See {IERC721-balanceOf}."
      },
      "getApproved(uint256)": {
        "details": "See {IERC721-getApproved}."
      },
      "getRoleAdmin(bytes32)": {
        "details": "Returns the admin role that controls `role`. See {grantRole} and {revokeRole}. To change a role's admin, use {_setRoleAdmin}."
      },
      "grantRole(bytes32,address)": {
        "details": "Grants `role` to `account`. If `account` had not been already granted `role`, emits a {RoleGranted} event. Requirements: - the caller must have ``role``'s admin role."
      },
      "hasRole(bytes32,address)": {
        "details": "Returns `true` if `account` has been granted `role`."
      },
      "isApprovedForAll(address,address)": {
        "details": "See {IERC721-isApprovedForAll}."
      },
      "name()": {
        "details": "See {IERC721Metadata-name}."
      },
      "ownerOf(uint256)": {
        "details": "See {IERC721-ownerOf}."
      },
      "renounceRole(bytes32,address)": {
        "details": "Revokes `role` from the calling account. Roles are often managed via {grantRole} and {revokeRole}: this function's purpose is to provide a mechanism for accounts to lose their privileges if they are compromised (such as when a trusted device is misplaced). If the calling account had been revoked `role`, emits a {RoleRevoked} event. Requirements: - the caller must be `account`."
      },
      "revokeRole(bytes32,address)": {
        "details": "Revokes `role` from `account`. If `account` had been granted `role`, emits a {RoleRevoked} event. Requirements: - the caller must have ``role``'s admin role."
      },
      "safeTransferFrom(address,address,uint256)": {
        "details": "See {IERC721-safeTransferFrom}."
      },
      "safeTransferFrom(address,address,uint256,bytes)": {
        "details": "See {IERC721-safeTransferFrom}."
      },
      "setApprovalForAll(address,bool)": {
        "details": "See {IERC721-setApprovalForAll}."
      },
      "symbol()": {
        "details": "See {IERC721Metadata-symbol}."
      },
      "tokenByIndex(uint256)": {
        "details": "See {IERC721Enumerable-tokenByIndex}."
      },
      "tokenOfOwnerByIndex(address,uint256)": {
        "details": "See {IERC721Enumerable-tokenOfOwnerByIndex}."
      },
      "tokenURI(uint256)": {
        "details": "See {IERC721Metadata-tokenURI}."
      },
      "totalSupply()": {
        "details": "See {IERC721Enumerable-totalSupply}."
      },
      "transferFrom(address,address,uint256)": {
        "details": "See {IERC721-transferFrom}."
      }
    },
    "version": 1
  },
  "userdoc": {
    "kind": "user",
    "methods": {},
    "version": 1
  }
}